:100000000C9467010C948F010C948F010C948F0158
:100010000C948F010C948F010C948F010C948F0120
:100020000C948F010C948F010C94E5090C94B10889
:100030000C948F010C948F010C948F010C948F0100
:100040000C948F010C948F010C948F010C948F01F0
:100050000C948F010C948F010C948F010C9462030B
:100060000C948F010C948F010C948F010C948F01D0
:100070000C948F010C948F010C948F010C948F01C0
:100080000C948F010C948F010C948F010C948F01B0
:100090000C948F010C948F010C948F010C948F01A0
:1000A0000C948F010C948F010C948F0171047404D3
:1000B000630467046D0495049504950478047C0436
:1000C000800486048A04950490040000000200095C
:1000D0000F0000030401000C0000000000000000FD
:1000E00000000000000000000408020110408040F1
:1000F000102040804080080204018040201002014E
:10010000108010204040040404040403040502028B
:1001100002020403020202020606060606060404A0
:100120000202020400000000250028002B002E001F
:10013000310000000000240027002A002D003000BC
:10014000080B000202020100090400000102020083
:100150000005240010010524010101042402060504
:100160002406000107058103100040090401000274
:100170000A00000007050202400000070583024054
:10018000000000C18081C112010002020000404154
:10019000233680000101020001120100020000006C
:1001A00040412336800001010200014172647569FB
:1001B0006E6F204C4C430041726475696E6F204C29
:1001C000656F6E6172646F00040309040000000033
:1001D000000000002A2B28000000000000000000A2
:1001E0000000000000000000000000002C9EB4A0F1
:1001F000A1A2A434A6A7A5AE362D3738271E1F20EE
:10020000212223242526B333B62EB7B89F848586B2
:100210008788898A8B8C8D8E8F90919293949596F6
:100220009798999A9B9C9D2F3130A3AD3504050674
:100230000708090A0B0C0D0E0F10111213141516D6
:100240001718191A1B1C1DAFB1B0B5000904020024
:1002500001030000000921010100012265000705DA
:10026000840340000105010902A1010901A10085E3
:10027000010509190129031500250195037501815F
:100280000295017505810305010930093109381509
:1002900081257F750895038106C0C005010906A167
:1002A000018502050719E029E7150025017501956B
:1002B00008810295017508810395067508150025CA
:1002C000650507190029658100C0D705900B112429
:1002D0001FBECFEFDAE0DEBFCDBF11E0A0E0B1E09E
:1002E000EEE8F7E102C005900D92A63AB107D9F702
:1002F00022E0A6EAB1E001C01D92A435B207E1F701
:1003000012E0CEECD2E004C02297FE010E94C10BA5
:10031000CA3CD107C9F70E94F5050C94C50B0C9493
:10032000000040ED57E060E070E08EEA91E00E944E
:10033000D50220E032EC41E050E06EEE71E08EEA52
:1003400091E00E948E028EEA91E00E948B026AE0A8
:1003500071E08091DF019091E0010E9446066AE021
:1003600070E080E090E00E94DB0341E060E08EEA14
:1003700091E00E94470361E08DE00C949604CF92D7
:10038000DF92EF92FF920F931F930E94AC03672BB3
:10039000682B692B41F40E94AC0362307105810522
:1003A000910508F476C00E94AC036093A601709397
:1003B000A7018093A8019093A9010091AA0110912F
:1003C000AB012091AC013091AD016017710782073C
:1003D000930740F46093AA017093AB018093AC0142
:1003E0009093AD010091AA011091AB012091AC0155
:1003F0003091AD016B017C01C01AD10AE20AF30A07
:10040000970186010A3F11052105310508F441C015
:100410006093AA017093AB018093AC019093AD01FE
:100420008EEA91E00E948B026CE171E08091DF0125
:100430009091E0010E94460664E271E08091DF0144
:100440009091E0010E9446060E94AC03AB01BC0102
:100450002AE030E08091DF019091E0010E94A10646
:1004600066E271E08091DF019091E0010E94460612
:1004700065E070E080E090E00E94DB036AE070E0FD
:1004800080E090E00E94DB0361E08EEA91E00E9450
:10049000090361E08DE00E94CF0464EF71E080E029
:1004A00090E00E94DB0360E08DE00E94CF0464EFE7
:1004B00071E080E090E01F910F91FF90EF90DF904E
:1004C000CF900C94DB030F931F93CF93DF93EC013A
:1004D000662359F00E94AC0369837A838B839C83E3
:1004E000DF91CF911F910F9108950E94AC03098174
:1004F0001A812B813C81601B710B820B930B64363C
:1005000071058105910530F763E070E080E090E0CF
:100510000E94DB03EACF60E00C946302CF92DF928B
:10052000EF92FF920F931F93CF93DF9300D000D0F1
:10053000CDB7DEB78C017B01FC0172AB61AB8BE107
:10054000C82ED12CC70129833A834B835C830E9438
:10055000C80529813A814B815C81811113C0F1E08A
:10056000CF1AD10879F064E670E080E090E029834A
:100570003A834B835C830E94DB035C814B813A812D
:100580002981E0CFBA01A901F80181A992A90F90B0
:100590000F900F900F90DF91CF911F910F91FF90CF
:1005A000EF90DF90CF900C94C205FC0113AA14AA1F
:1005B00015AA16AA118212821382148241155105BE
:1005C0006105710521F0CB01BA010C94DB0308959C
:1005D0001F93CF93DF93EC01162F6FE271E089A98F
:1005E0009AA90E9446064AE050E0612F89A99AA97B
:1005F0000E94AE0666E371E089A99AA90E944606A8
:1006000062E370E080E090E0DF91CF911F910C9465
:10061000DB031F93CF93DF93EC01162F8D8188238B
:1006200089F189A99AA9DC01ED91FC910480F581F9
:10063000E02D0995892BA9F307C02637310519F15B
:100640002835310509F41D8289A99AA9DC01ED91AB
:10065000FC910480F581E02D09951816190694F493
:1006600089A99AA9DC01ED91FC910680F781E02D22
:1006700009959C01332723363105F9F6612FCE0108
:100680000E94E80283E6DF91CF911F9108950F93B6
:100690001F93CF93DF931F92CDB7DEB78C016623F4
:1006A00049F081E0F801858360E0C80149830E9438
:1006B00009034981F80145830F90DF91CF911F9184
:1006C0000F9108951F920F920FB60F9211242F933E
:1006D0003F938F939F93AF93BF938091E601909147
:1006E000E701A091E801B091E9013091E50123E033
:1006F000230F2D3720F40196A11DB11D05C026E85A
:10070000230F0296A11DB11D2093E5018093E60100
:100710009093E701A093E801B093E9018091EA0189
:100720009091EB01A091EC01B091ED010196A11D1A
:10073000B11D8093EA019093EB01A093EC01B0937B
:10074000ED01BF91AF919F918F913F912F910F90AC
:100750000FBE0F901F9018952FB7F8946091E60187
:100760007091E7018091E8019091E9012FBF089510
:100770003FB7F8948091EA019091EB01A091EC01D0
:10078000B091ED0126B5A89B05C02F3F19F0019649
:10079000A11DB11D3FBF6627782F892F9A2F620FA9
:1007A000711D811D911D42E0660F771F881F991FE3
:1007B0004A95D1F70895CF92DF92EF92FF92CF93AF
:1007C000DF936B017C010E94B803EB01C114D104DB
:1007D000E104F10489F00E94590A0E94B8036C1BDD
:1007E0007D0B683E734090F381E0C81AD108E108A0
:1007F000F108C851DC4FEACFDF91CF91FF90EF9025
:10080000DF90CF900895789484B5826084BD84B5DC
:10081000816084BD85B5826085BD85B5816085BDFB
:10082000EEE6F0E0808181608083E1E8F0E0108214
:10083000808182608083808181608083E0E8F0E055
:10084000808181608083E1E9F0E080818260808343
:10085000808181608083E0E9F0E080818160808335
:10086000E1ECF0E08081846080838081826080831D
:10087000808181608083E3ECF0E08081816080830F
:10088000E0ECF0E0808182608083E2ECF0E0808147
:1008900081608083EAE7F0E08081846080838081EA
:1008A0008260808380818160808380818068808392
:1008B000089590E0FC013197EF30F105B0F5EA5A68
:1008C000FF4F0C94BF0B809180008F7703C0809105
:1008D00080008F7D80938000089580918000877FC5
:1008E000F9CF84B58F7702C084B58F7D84BD08951C
:1008F000809190008F7707C0809190008F7D03C01A
:1009000080919000877F8093900008958091C0002F
:100910008F7703C08091C0008F7D8093C0000895C1
:100920008091C200877F8093C2000895CF93DF93A8
:1009300090E0FC01E851FF4F2491FC01EA5FFE4F7B
:100940008491882349F190E0880F991FFC01EE5CA7
:10095000FE4FA591B4918C5D9E4FFC01C591D49141
:100960009FB7611108C0F8948C91209582238C93D5
:10097000888182230AC0623051F4F8948C91322F1E
:10098000309583238C938881822B888304C0F894CC
:100990008C91822B8C939FBFDF91CF9108950F9301
:1009A0001F93CF93DF931F92CDB7DEB7282F30E090
:1009B000F901E653FF4F8491F901E851FF4F14917B
:1009C000F901EA5FFE4F04910023C9F0882321F06A
:1009D00069830E9459046981E02FF0E0EE0FFF1F48
:1009E000EC5DFE4FA591B4919FB7F8948C91611185
:1009F00003C01095812301C0812B8C939FBF0F9062
:100A0000DF91CF911F910F910895CF93DF931F92A4
:100A1000CDB7DEB76983DC01ED91FC910280F381F3
:100A2000E02D41E050E0BE016F5F7F4F09950F90D0
:100A3000DF91CF910895CF93DF93EC018C859D8555
:100A400097FF05C082E00E9486079D878C878C8572
:100A50009D85DF91CF91089583E00C94DB09FC0123
:100A60008485958597FD06C082E00E942E0790E060
:100A70000196089582E00E942E0790E00895FC01FF
:100A80008485958597FD05C02FEF3FEF3587248737
:100A9000089582E00C948607CF93DF93EC01809158
:100AA0000701882331F083E00E94B7071816190662
:100AB00034F081E090E09B838A8380E090E0DF91D6
:100AC000CF910895FC0120812E5F208342E450E005
:100AD00060E471E080E80C945208FC01818190810F
:100AE000913A59F4813209F03CC047E050E060E0AF
:100AF00071E080E00E94520843C0913291F580324B
:100B000039F467E070E080E091E00E94830806C05D
:100B1000823209F035C08281809307018091000103
:100B200090910101A0910201B0910301803B94409A
:100B3000A105B105C1F48091070180FD14C087E7CC
:100B400097E790930108809300082BE088E190E0FC
:100B50000FB6F894A895809360000FBE20936000B4
:100B60000FC080E0089588E10FB6F894809360008C
:100B7000109260000FBEA895109201081092000814
:100B800081E008952FEF3FEFFC013587248708951A
:100B9000CF93C09107016AE070E080E090E00E948E
:100BA000DB0381E0C11101C080E0CF910895109274
:100BB000F1011092F00188EE93E0A0E0B0E08093A4
:100BC000F2019093F301A093F401B093F5018BE847
:100BD00091E09093EF018093EE018FEF9FEF909360
:100BE000FB018093FA01089508950E9403040E9476
:100BF000F4058EE392E00E943B0A0E949101C0E05E
:100C0000D0E00E94BF012097E1F30E940000F9CFDD
:100C1000CF92DF92EF92FF920F931F93CF93DF93C8
:100C20006C017A01EB01E60EF71E00E010E0CE1534
:100C3000DF0561F06991D601ED91FC910190F081A1
:100C4000E02DC6010995080F191FF1CFC801DF91EA
:100C5000CF911F910F91FF90EF90DF90CF9008956B
:100C60006115710581F0DB010D900020E9F7AD0100
:100C700041505109461B570BDC01ED91FC9102805C
:100C8000F381E02D099480E090E008950C94300603
:100C90008F929F92AF92BF92CF92DF92EF92FF928C
:100CA0000F931F93CF93DF93CDB7DEB7A1970FB606
:100CB000F894DEBF0FBECDBF7C01C42EE52FCB0163
:100CC000D22E19A221E02D1510F02AE0D22E8E018D
:100CD0000F5D1F4F8D2C912CA12CB12C6C2D7E2FD4
:100CE000A50194010E949D0B8C2DD29E8019112488
:100CF000015011098A3014F4805D01C0895CF8014B
:100D00008083211531054105510521F0C22EE32FC5
:100D1000CA01E4CFB801C7010E943006A1960FB600
:100D2000F894DEBF0FBECDBFDF91CF911F910F9121
:100D3000FF90EF90DF90CF90BF90AF909F908F90FB
:100D400008952115310541F4DC01ED91FC910190EC
:100D5000F081E02D642F09940C9448069A01462FE7
:100D600050E060E070E00C94A10640914202509186
:100D70004302209140023091410242175307B4F4DC
:100D80009091E8009570E1F39091E80092FD19C010
:100D90008093F100809142029091430201968F73FB
:100DA0009927892B19F48EEF8093E80080914202F5
:100DB000909143020196909343028093420281E016
:100DC000089580E00895CF92DF92FF920F931F93D2
:100DD000CF93DF931F92CDB7DEB7082F162F862F44
:100DE000880F8E5F99830E94B50683E00E94B50646
:100DF000F02EC02E9981D92E8C2D8F19811778F461
:100E0000F60184910E94B506082F80E00E94B50685
:100E10008023FFEFCF1ADF0A8111EECF01C081E0FE
:100E20000F90DF91CF911F910F91FF90DF90CF90A6
:100E30000895615030F02091F100FC01208301966B
:100E4000F8CF289884E68093450208952FB7FC01D7
:100E50002083F89467706093E9000895CF93DF933F
:100E60001F92CDB7DEB7682FCE0101960E942607EC
:100E70008091F20099819FBF0F90DF91CF910895EB
:100E8000FF920F931F93CF93DF9300D0CDB7DEB7C0
:100E9000F62E8A0190914402992311F057FF03C066
:100EA0008FEF9FEF2BC0682FCE0101967A830E94AF
:100EB00026078091F20090E0A8017A8180179107BF
:100EC0000CF4AC01EF2DF72FF40E84E6FE1639F08A
:100ED0002898809345029091F1009193F7CF4115A6
:100EE000510521F08091F200882321F089818FBF84
:100EF000CA0104C08BE68093E800F8CF0F900F90F2
:100F0000DF91CF911F910F91FF900895CF93DF93C1
:100F10001F92CDB7DEB741E050E0BE016F5F7F4F5B
:100F20000E944007019719F4898190E002C08FEF79
:100F30009FEF0F90DF91CF910895CF93DF931F9292
:100F4000CDB7DEB7682FCE0101960E94260790919B
:100F5000E800892F807295FF04C09091F20080E430
:100F6000891B99819FBF0F90DF91CF9108956F9258
:100F70007F928F929F92AF92BF92CF92DF92EF9229
:100F8000FF920F931F93CF93DF931F92CDB7DEB7DE
:100F9000782E7B01C42EB52E80914402882369F0FF
:100FA000042F152F8AEFD82E872D8072982E9AE362
:100FB000A92E872D8074882E11C08FEF9FEF57C008
:100FC000872D0E949D07682E81110CC0DA94A9F329
:100FD00061E070E080E090E00E94DB030115110504
:100FE00079F73BC0282F30E0021713070CF4602E6E
:100FF000672DCE0101960E9426078091E80085FFAB
:1010000029C0262D30E0021B130B992039F06A9479
:101010008FEF6816B1F01092F100F9CFF701862D2D
:1010200077FE07C0815058F094919093F10031966B
:10103000F9CF815020F091919093F100FACFE20E18
:10104000F31E8091E80085FF0FC00115110511F412
:1010500081100AC089818FBFC1CF5D9884E68093DB
:1010600046028C2D9B2D03C0A092E800F3CF0F9079
:10107000DF91CF911F910F91FF90EF90DF90CF9074
:10108000BF90AF909F908F907F906F900895109237
:10109000E900109243021092420290934102809321
:1010A00040020895CF92DF92FF920F931F93CF9348
:1010B000DF9300D0CDB7DEB7F82E8A016B010115A2
:1010C0001105B1F0F601F7FE02C0849101C08081E4
:1010D00049835A830E94B50601501109FFEFCF1AC8
:1010E000DF0A49815A818111EACF8FEF9FEF01C05A
:1010F000CA010F900F90DF91CF911F910F91FF9038
:10110000DF90CF9008951F93CF93DF931F92CDB7B9
:10111000DEB7162F2091E80022FFFCCF612F7983E4
:101120000E9419078BEF8093E800812F7981972F18
:101130000F90DF91CF911F910895CF93DF931F926E
:10114000CDB7DEB71982CE0101960E946205CE01AD
:1011500001960E94780A898190E00F90DF91CF91EB
:1011600008951F920F920FB60F921124EF92FF92E3
:101170000F931F932F933F934F935F936F937F939F
:101180008F939F93AF93BF93EF93FF93CF93DF938F
:10119000CDB7DEB76297DEBFCDBF1092E900809178
:1011A000E80083FFEBC068E0CE010A960E941907B1
:1011B00082EF8093E8009A8597FF05C08091E80050
:1011C00080FFFCCF03C08EEF8093E800892F8076EC
:1011D00009F0B9C08B85811105C01092F100109201
:1011E000F100C5C0282F2D7F213009F4C0C0853003
:1011F00049F48091E80080FFFCCF8C858068809363
:10120000E300B5C0863009F076C02D85E888F988FE
:10121000223071F580E090E02A8B0E9447080E94FE
:101220009D0899E08E010F5F1F4FF801392F119231
:101230003A95E9F799832A892A8391E09E8390E879
:1012400098879AEF99872091420230914302275F55
:101250003F4F3C832B838D83C7010E94470849E0A1
:1012600050E0B80180E00E9452080E949D087FC0B3
:10127000C7012A8B0E9447082A89223241F482E260
:1012800090E00E94830A892B09F071C074C021305C
:1012900069F488899989089711F420933F02809115
:1012A0003F02811118C069E971E01AC0233009F0CA
:1012B00062C08C85882391F0823021F460E187EB55
:1012C00091E006C0813009F056C06BE08BEA91E0F6
:1012D0000E94E3064AC067E871E002C068EC71E072
:1012E0006115710509F447C0FB01449150E080E8A5
:1012F0000E9452083CC0873009F43DC0883021F478
:1013000081E08093F10033C0893089F5937099F5BD
:10131000E3E8F1E081E021E096E38093E9002093A7
:10132000EB0034913093EC009093ED008F5F319699
:10133000853099F78EE78093EA001092EA008C8559
:101340008093440214C0888999890E9447088E8539
:10135000811105C0CE010A960E946D0506C082303B
:1013600051F4CE010A960E94AB0A882321F08EEF39
:101370008093E80003C081E28093EB0062960FB691
:10138000F894DEBF0FBECDBFDF91CF91FF91EF91FB
:10139000BF91AF919F918F917F916F915F914F918D
:1013A0003F912F911F910F91FF90EF900F900FBEE3
:1013B0000F901F9018958093E9008091F200882388
:1013C00019F08AE38093E80008951F920F920FB6F8
:1013D0000F9211242F933F934F935F936F937F93BB
:1013E0008F939F93AF93BF93EF93FF938091E1000F
:1013F0001092E10083FF0FC01092E90091E09093FA
:10140000EB001092EC0092E39093ED0010924402F6
:1014100098E09093F00082FF1DC083E00E94DB09FA
:1014200080914602882339F0809146028150809352
:101430004602882369F080914502882359F0809103
:101440004502815080934502811104C0289A02C050
:101450005D9AF1CFFF91EF91BF91AF919F918F91E5
:101460007F916F915F914F913F912F910F900FBEA0
:101470000F901F9018951092440281E08093D7003E
:1014800080EA8093D80082E189BD09B400FEFDCFD7
:1014900061E070E080E090E00E94DB0380E98093EF
:1014A000D8008CE08093E2001092E000559A209AD8
:1014B00008950895FF920F931F93CF93DF93EC014C
:1014C000F62EE881F9810480F581E02D09958C01E3
:1014D000E881F9810680F781E02D6F2DCE01099515
:1014E000C8019927DF91CF911F910F91FF90089527
:1014F000FC0120812F5F208349E150E06CE472E021
:1015000080E80C94520845E650E065E672E080E819
:101510000C945208EF92FF920F931F93CF93DF9397
:101520001F92CDB7DEB789838B017A0141E050E08D
:10153000BE016F5F7F4F84E00E94B707A701B8012B
:1015400084E40E94B7070F90DF91CF911F910F9114
:10155000FF90EF900895FC0191818081813A31F4F0
:1015600081E0913091F0933089F411C0813271F4AF
:101570009B3021F482818093090105C09A3031F4B7
:1015800082818093080181E00895089580E00895A4
:1015900048E050E082E00C948A0ACF93DF93DC01AC
:1015A000683818F0E8E7E60F25C0E62FF0E067FF9F
:1015B00011C0E058F10981E090E001C0880FEA9580
:1015C000EAF714969C911497982B14969C93149771
:1015D000E0E010C0E453FE4FE491EE2309F440C074
:1015E000E7FF08C014968C911497826014968C9330
:1015F0001497EF7716968C9116978E1741F11796E0
:101600008C9117978E1719F118968C9118978E1741
:10161000F1F019968C9119978E17C9F01A968C9142
:101620001A978E17A1F01B968C911B978E1779F045
:1016300080E090E0ED01C80FD91F2E81211102C07A
:10164000EE8305C0019686309105A1F709C0BD0162
:101650006C5F7F4FCD010E94C80A81E090E008C016
:1016600081E090E013969C938E93129780E090E037
:10167000DF91CF910895683818F0E8E7E60F25C0AC
:10168000E62FF0E067FF12C0E058F10921E030E0FA
:1016900001C0220FEA95EAF72095DC0114963C91EF
:1016A0001497322314963C93E0E00FC0E453FE4FAE
:1016B000E491EE2329F1E7FF08C0DC0114962C9198
:1016C00014972D7F14962C93EF7720E030E0EE23D3
:1016D00051F0DC01A20FB31F16964C9116974E13D2
:1016E00002C016961C922F5F3F4F2630310579F7C6
:1016F000BC016C5F7F4F0E94C80A81E090E00895B2
:1017000080E090E00895FC01168217821086118611
:10171000128613861482BC016C5F7F4F0C94C80A3A
:101720001092530210924A02109249028BE991E002
:1017300090934802809347020895A1E21A2EAA1BB3
:10174000BB1BFD010DC0AA1FBB1FEE1FFF1FA21771
:10175000B307E407F50720F0A21BB30BE40BF50B6E
:10176000661F771F881F991F1A9469F760957095F7
:10177000809590959B01AC01BD01CF010895EE0FBE
:0E178000FF1F0590F491E02D0994F894FFCF1F
:10178E0000E10000000000000101564D4450565F7C
:10179E00317C315F564D4450560D0A00564D445023
:1017AE00455F31007C005F564D4450450D0A005692
:1017BE004D4450435F005F564D4450430D0A004563
:1017CE0072726F723A20417474656D707420746F0A
:1017DE0020736574206120726561642D6F6E6C7963
:1017EE00207661726961626C65206F72206461742B
:1017FE00612074797065206E6F7420737570706FD0
:10180E00727465640D0A000000000005054C052F7A
:10181E00053F051B052C05000000005A0A0806CDE1
:06182E000A3B0B830B00D6
:00000001FF
