:100000000C945D000C9485000C9485000C94850084
:100010000C9485000C9485000C9485000C9485004C
:100020000C9485000C9485000C9485000C9485003C
:100030000C9485000C9485000C9485000C9485002C
:100040000C94DF030C9485000C9498060C94CA065B
:100050000C9485000C9485000C9485000C9485000C
:100060000C9485000C94850000000008000201003B
:100070000003040700000000000000000102040863
:100080001020408001020408102001020408102002
:10009000040404040404040402020202020203032E
:1000A0000303030300000000250028002B000000CC
:1000B0000000240027002A00FA0611241FBECFEFFB
:1000C000D8E0DEBFCDBF12E0A0E0B1E0E4EAF0E1AD
:1000D00002C005900D92AA30B107D9F722E0AAE03C
:1000E000B2E001C01D92AF3EB207E1F710E0CAEBEB
:1000F000D0E004C02297FE010E944C08C83BD10703
:10010000C9F70E9418080C9450080C940000CF9373
:1001100040ED57E060E070E082E192E00E9446032B
:1001200020E835E240E050E062E572E082E192E0F2
:100130000E94590382E192E00E94430364E171E06E
:1001400080914302909144020E947B076AE070E034
:1001500080E090E00E94580441E060E082E192E09B
:100160000E94C40326E040E855E260E070E082E5CA
:1001700092E00E943606C2E061E08C2F0E94E40407
:1001800060E08C2F0E941D05CF5FCC30A9F7CF9186
:1001900008952F923F924F925F926F927F928F922B
:1001A0009F92AF92BF92CF92DF92EF92FF920F9306
:1001B0001F93CF93DF9382E1882E81E0982E61E038
:1001C000F40180810E941D0590E1A92E91E0B92ED5
:1001D00060E0F50180810E941D056CED75E080E016
:1001E00090E00E94580466E271E082E592E00E948D
:1001F000980760E0F40180810E941D0560E0F50130
:1002000080810E941D0564EF71E080E090E00E9413
:1002100058042EE0C22E21E0D22E61E0F60180814A
:100220000E941D053CE0E32E31E0F32E60E0F70173
:1002300080810E941D0568EE73E080E090E00E94DE
:10024000580460E371E082E592E00E94980760E064
:10025000F60180810E941D0560E0F70180810E9407
:100260001D0564EF71E080E090E00E9458040AE010
:1002700011E061E0F80180810E941D05C8E0D1E035
:1002800060E088810E941D0560E476E080E090E0F7
:100290000E9458046AE371E082E592E00E949807A8
:1002A00060E0F80180810E941D0560E088810E9465
:1002B0001D0564EF71E080E090E00E94580446E084
:1002C000642E41E0742E61E0F30180810E941D05DF
:1002D00054E0452E51E0552E60E0F20180810E94ED
:1002E0001D056CEF78E080E090E00E94580464E423
:1002F00071E082E592E00E94980760E0F30180815E
:100300000E941D0560E0F20180810E941D0564EFDE
:1003100071E080E090E00E94580462E0262E61E0E7
:10032000362E61E0F10180810E941D0560E0E0E071
:10033000F1E080810E941D0560EB74E080E090E0B8
:100340000E9458046EE471E082E592E00E949807F2
:1003500060E0F10180810E941D0560E0E0E0F1E0D5
:1003600080810E941D0564EF71E080E090E00E94B2
:10037000580460E0F40180810E941D0561E0F501F0
:1003800080810E941D056CED75E080E090E00E9488
:10039000580468E571E082E592E00E94980760E009
:1003A000F40180810E941D0560E0F50180810E94BA
:1003B0001D0564EF71E080E090E00E94580460E069
:1003C000F60180810E941D0561E0F70180810E9495
:1003D0001D0568EE73E080E090E00E94580463E63B
:1003E00071E082E592E00E94980760E0F60180816A
:1003F0000E941D0560E0F70180810E941D0564EFE9
:1004000071E080E090E00E94580460E0F801808193
:100410000E941D0561E088810E941D0560E476E070
:1004200080E090E00E9458046EE671E082E592E080
:100430000E94980760E0F80180810E941D0560E03D
:1004400088810E941D0564EF71E080E090E00E94C9
:10045000580460E0F30180810E941D0561E0F20113
:1004600080810E941D056CEF78E080E090E00E94A2
:10047000580469E771E082E592E00E94980760E025
:10048000F30180810E941D0560E0F20180810E94DD
:100490001D0564EF71E080E090E00E94580460E088
:1004A000F10180810E941D0561E0E0E0F1E08081C2
:1004B0000E941D0560EB74E080E090E00E9458040B
:1004C00064E871E082E592E00E94980760E0F10143
:1004D00080810E941D0560E0E0E0F1E080810E94E3
:1004E0001D0564EF71E080E090E0DF91CF911F91F6
:1004F0000F91FF90EF90DF90CF90BF90AF909F90C3
:100500008F907F906F905F904F903F902F900C94C2
:100510005804CF92DF92EF92FF920F931F930E94A5
:100520002904672B682B692B41F40E94290462304F
:1005300071058105910508F476C00E942904609335
:100540000A0270930B0280930C0290930D020091AB
:100550000E0210910F0220911002309111026017CB
:1005600071078207930740F460930E0270930F02A5
:10057000809310029093110200910E0210910F02CD
:1005800020911002309111026B017C01C01AD10A36
:10059000E20AF30A970186010A3F11052105310598
:1005A00008F441C060930E0270930F028093100212
:1005B0009093110282E192E00E9443036FE871E0A0
:1005C00080914302909144020E947B0767E971E0A9
:1005D00080914302909144020E947B070E9429046B
:1005E000AB01BC012AE030E08091430290914402CB
:1005F0000E94030869E971E08091430290914402EE
:100600000E947B0765E070E080E090E00E94580463
:100610006AE070E080E090E00E94580461E082E1CE
:1006200092E00E9486031F910F91FF90EF90DF9060
:10063000CF900C94C9000F931F93CF93DF93EC01DD
:10064000662359F00E94290469837A838B839C83F3
:10065000DF91CF911F910F9108950E942904098184
:100660001A812B813C81601B710B820B930B6436CA
:1006700071058105910530F763E070E080E090E05E
:100680000E945804EACF60E00C941B03FC0113AAFB
:1006900014AA15AA16AA1182128213821482411575
:1006A00051056105710521F0CB01BA010C94580484
:1006B0000895FB01BA01A901DC01D296FC93EE93E7
:1006C000D19726E0CF010C9436061F93CF93DF938A
:1006D000EC01162F62EA71E089A99AA90E947B07B2
:1006E0004AE050E0612F89A99AA90E94100869EA9E
:1006F00071E089A99AA90E947B0762E370E080E01B
:1007000090E0DF91CF911F910C9458041F93CF93E9
:10071000DF93EC01162F8D81882389F189A99AA98D
:10072000DC01ED91FC910480F581E02D0995892B88
:10073000A9F307C02637310519F12835310509F429
:100740001D8289A99AA9DC01ED91FC910480F581B3
:10075000E02D09951816190694F489A99AA9DC01C7
:10076000ED91FC910680F781E02D09959C013327DE
:1007700023363105F9F6612FCE010E94650383E629
:10078000DF91CF911F9108950F931F93CF93DF9324
:100790001F92CDB7DEB78C01662349F081E0F801E6
:1007A000858360E0C80149830E9486034981F8017E
:1007B00045830F90DF91CF911F910F9108951F9264
:1007C0000F920FB60F9211242F933F938F939F9305
:1007D000AF93BF9380914A0290914B02A0914C023B
:1007E000B0914D023091490223E0230F2D3720F4C0
:1007F0000196A11DB11D05C026E8230F0296A11D7B
:10080000B11D2093490280934A0290934B02A0931A
:100810004C02B0934D0280914E0290914F02A091F4
:100820005002B09151020196A11DB11D80934E025C
:1008300090934F02A0935002B0935102BF91AF9199
:100840009F918F913F912F910F900FBE0F901F900E
:1008500018952FB7F89460914A0270914B028091DD
:100860004C0290914D022FBF08953FB7F8948091AC
:100870004E0290914F02A0915002B091510226B5C4
:10088000A89B05C02F3F19F00196A11DB11D3FBFC8
:100890006627782F892F9A2F620F711D811D911D58
:1008A00042E0660F771F881F991F4A95D1F7089578
:1008B000CF92DF92EF92FF92CF93DF936B017C0197
:1008C0000E943504EB01C114D104E104F10489F064
:1008D0000E9427080E9435046C1B7D0B683E734004
:1008E00090F381E0C81AD108E108F108C851DC4F43
:1008F000EACFDF91CF91FF90EF90DF90CF900895F6
:10090000789484B5826084BD84B5816084BD85B5EA
:10091000826085BD85B5816085BDEEE6F0E08081B1
:1009200081608083E1E8F0E01082808182608083D2
:10093000808181608083E0E8F0E080818160808355
:10094000E1EBF0E0808184608083E0EBF0E0808187
:1009500081608083EAE7F0E0808184608083808129
:1009600082608083808181608083808180688083D1
:100970001092C1000895833081F028F4813099F0FD
:100980008230A1F008958730A9F08830B9F0843022
:10099000D1F4809180008F7D03C0809180008F779B
:1009A00080938000089584B58F7702C084B58F7DD1
:1009B00084BD08958091B0008F7703C08091B0000E
:1009C0008F7D8093B0000895CF93DF9390E0FC017A
:1009D000E458FF4F2491FC01E057FF4F8491882396
:1009E00049F190E0880F991FFC01E255FF4FA59156
:1009F000B4918C559F4FFC01C591D4919FB7611163
:100A000008C0F8948C91209582238C93888182234E
:100A10000AC0623051F4F8948C91322F30958323C0
:100A20008C938881822B888304C0F8948C91822BCC
:100A30008C939FBFDF91CF9108950F931F93CF9316
:100A4000DF931F92CDB7DEB7282F30E0F901E859C8
:100A5000FF4F8491F901E458FF4F1491F901E057D9
:100A6000FF4F04910023C9F0882321F069830E947D
:100A7000BB046981E02FF0E0EE0FFF1FEC55FF4F44
:100A8000A591B4919FB7F8948C91611103C0109512
:100A9000812301C0812B8C939FBF0F90DF91CF9159
:100AA0001F910F910895FC01818D228D90E0805C53
:100AB0009F4F821B91098F7399270895FC01918D97
:100AC000828D981731F0828DE80FF11D858D90E0B1
:100AD00008958FEF9FEF0895FC01918D828D9817F7
:100AE00061F0828DDF01A80FB11D5D968C91928D12
:100AF0009F5F9F73928F90E008958FEF9FEF08950F
:100B000080EF96E0892B49F080E090E0892B29F076
:100B10000E94F00681110C9400000895FC01848D60
:100B2000DF01A80FB11DA35ABF4F2C91848D90E017
:100B300001968F739927848FA689B7892C93A089F2
:100B4000B1898C9180648C93938D848D981306C0A9
:100B50000288F389E02D80818F7D80830895CF9373
:100B6000DF93EC01888D8823C9F0EA89FB898081B5
:100B700085FD05C0A889B9898C9186FD0FC00FB687
:100B800007FCF5CF808185FFF2CFA889B9898C91C8
:100B900085FFEDCFCE010E948E05E7CFDF91CF918B
:100BA0000895CF92DF92FF920F931F93CF93DF931D
:100BB0001F92CDB7DEB76C01DC015B969C915B9711
:100BC0005C968C915C97981307C05096ED91FC91C0
:100BD0005197808185FD32C0F601038D10E00F5FD3
:100BE0001F4F0F731127F02EF601848DF81211C0DC
:100BF0000FB607FCF9CFD6015096ED91FC915197B5
:100C0000808185FFF1CFC60169830E948E056981CD
:100C1000EBCF838DE80FF11DE35AFF4F6083D601C0
:100C20005B960C935B975296ED91FC915397808164
:100C30008062808381E058968C930DC0D6015696D1
:100C4000ED91FC91579760835096ED91FC915197EF
:100C500080818064808381E090E00F90DF91CF916C
:100C60001F910F91FF90DF90CF900895BF92CF9288
:100C7000DF92EF92FF92CF93DF93EC016A017B0149
:100C8000B22EE889F98982E08083411581EE580708
:100C900061057105A1F060E079E08DE390E0A701C6
:100CA00096010E94280821503109410951095695A1
:100CB000479537952795211580E1380798F0E88901
:100CC000F989108260E874E88EE190E0A70196014E
:100CD0000E9428082150310941095109569547952C
:100CE00037952795EC85FD853083EE85FF8520833C
:100CF000188EEC89FD89B082EA89FB898081806148
:100D00008083EA89FB89808188608083EA89FB8906
:100D1000808180688083EA89FB8980818F7D8083E0
:100D2000DF91CF91FF90EF90DF90CF90BF9008952B
:100D30001F920F920FB60F9211242F938F939F93B0
:100D4000EF93FF93E0916202F09163028081E09162
:100D50006802F091690282FD12C0908180916B025D
:100D60008F5F8F7320916C02821751F0E0916B02BC
:100D7000F0E0EE5AFD4F958F80936B0201C08081A9
:100D8000FF91EF919F918F912F910F900FBE0F9038
:100D90001F9018951F920F920FB60F9211242F9348
:100DA0003F934F935F936F937F938F939F93AF93F3
:100DB000BF93EF93FF9382E592E00E948E05FF912F
:100DC000EF91BF91AF919F918F917F916F915F91C3
:100DD0004F913F912F910F900FBE0F901F9018953C
:100DE00082E592E00E94530521E0892B09F420E07E
:100DF000822F0895109255021092540288EE93E0CB
:100E0000A0E0B0E08093560290935702A09358025E
:100E1000B09359028EEF91E0909353028093520267
:100E200085EC90E090935F0280935E0284EC90E00A
:100E3000909361028093600280EC90E09093630253
:100E40008093620281EC90E090936502809364024B
:100E500082EC90E0909367028093660286EC90E0CB
:100E6000909369028093680210926B0210926C0258
:100E700010926D0210926E020895CF92DF92EF925F
:100E8000FF920F931F93CF93DF936C017A01EB01D5
:100E9000E60EF71E00E010E0CE15DF0561F0699167
:100EA000D601ED91FC910190F081E02DC6010995EC
:100EB000080F191FF1CFC801DF91CF911F910F913A
:100EC000FF90EF90DF90CF9008956115710581F04C
:100ED000DB010D900020E9F7AD0141505109461B9F
:100EE000570BDC01ED91FC910280F381E02D099418
:100EF00080E090E008950C946507DC01ED91FC9191
:100F00000190F081E02D09940F931F93CF93DF930D
:100F1000EC016DE00E947D078C016AE0CE010E9429
:100F20007D07800F911FDF91CF911F910F91089541
:100F30000F931F93CF93DF93EC010E9465078C0101
:100F4000CE010E948407800F911FDF91CF911F91E6
:100F50000F9108958F929F92AF92BF92CF92DF929E
:100F6000EF92FF920F931F93CF93DF93CDB7DEB72E
:100F7000A1970FB6F894DEBF0FBECDBF7C01C42E83
:100F8000E52FCB01D22E19A221E02D1510F02AE079
:100F9000D22E8E010F5D1F4F8D2C912CA12CB12CC8
:100FA0006C2D7E2FA50194010E9428088C2DD29EC5
:100FB00080191124015011098A3014F4805D01C098
:100FC000895CF8018083211531054105510521F027
:100FD000C22EE32FCA01E4CFB801C7010E94650702
:100FE000A1960FB6F894DEBF0FBECDBFDF91CF91B3
:100FF0001F910F91FF90EF90DF90CF90BF90AF9037
:101000009F908F9008952115310541F4DC01ED91F9
:10101000FC910190F081E02D642F09940C94AA07B3
:101020009A01462F50E060E070E00C9403080895A8
:101030000E9480040E9417080E948700C0E8D5E043
:101040000E9489022097E1F30E948005F9CF08955C
:10105000A1E21A2EAA1BBB1BFD010DC0AA1FBB1FBC
:10106000EE1FFF1FA217B307E407F50720F0A21B2E
:10107000B30BE40BF50B661F771F881F991F1A949B
:1010800069F760957095809590959B01AC01BD01C5
:10109000CF010895EE0FFF1F0590F491E02D099404
:0410A000F894FFCFF2
:1010A4000B000A0009000800070006000500040000
:1010B40003000200564D4450565F317C315F564D5B
:1010C4004450560D0A004465646F2031204F4E0091
:1010D4004465646F2032204F4E004465646F2033B2
:1010E400204F4E004465646F2034204F4E00446509
:1010F400646F2035204F4E004465646F2031204FCB
:101104004646004465646F2032204F4646004465DD
:10111400646F2033204F4646004465646F203420BA
:101124004F4646004465646F2035204F46460056BE
:101134004D4450455F31007C005F564D4450450D91
:101144000A00564D4450435F005F564D4450430DD2
:101154000A004572726F723A20417474656D70743E
:1011640020746F20736574206120726561642D6F33
:101174006E6C79207661726961626C65206F722091
:10118400646174612074797065206E6F7420737566
:1011940070706F727465640D0A0000000000D10560
:0A11A4003D0753056C055E05AF051D
:00000001FF
