:100000000C945D000C9485000C9485000C94850084
:100010000C9485000C9485000C9485000C9485004C
:100020000C9485000C9485000C9485000C9485003C
:100030000C9485000C9485000C9485000C9485002C
:100040000C9461020C9485000C9420050C945205CC
:100050000C9485000C9485000C9485000C9485000C
:100060000C9485000C94850000000008000201003B
:100070000003040700000000000000000102040863
:100080001020408001020408102001020408102002
:10009000040404040404040402020202020203032E
:1000A0000303030300000000250028002B000000CC
:1000B0000000240027002A00820511241FBECFEF74
:1000C000D8E0DEBFCDBF11E0A0E0B1E0E8EAFCE09F
:1000D00002C005900D92AE39B107D9F722E0AEE922
:1000E000B1E001C01D92A434B207E1F710E0CAEB01
:1000F000D0E004C02297FE010E944E06C83BD10703
:10010000C9F70E941A060C9452060C940000CF9373
:1001100026E040E855E260E070E087EA91E00E9466
:10012000BE04C2E061E08C2F0E946C0360E08C2F63
:100130000E94A503CF5FCC30A9F7CF9108952F92ED
:100140003F924F925F926F927F928F929F92AF9267
:10015000BF92CF92DF92EF92FF920F931F93CF93B4
:10016000DF9382E1882E81E0982E61E0F4018081A6
:100170000E94A50390E1A92E91E0B92E60E0F5015F
:1001800080810E94A5036CED75E080E090E00E9404
:10019000CE0264E171E087EA91E00E94070660E028
:1001A000F40180810E94A50360E0F50180810E9436
:1001B000A50364EF71E080E090E00E94CE022EE0A3
:1001C000C22E21E0D22E61E0F60180810E94A503BB
:1001D0003CE0E32E31E0F32E60E0F70180810E94E5
:1001E000A50368EE73E080E090E00E94CE026EE12D
:1001F00071E087EA91E00E94070660E0F6018081E5
:100200000E94A50360E0F70180810E94A50364EFCE
:1002100071E080E090E00E94CE020AE011E061E02F
:10022000F80180810E94A503C8E0D1E060E08881E8
:100230000E94A50360E476E080E090E00E94CE0298
:1002400068E271E087EA91E00E94070660E0F80149
:1002500080810E94A50360E088810E94A50364EF6D
:1002600071E080E090E00E94CE0246E0642E41E022
:10027000742E61E0F30180810E94A50354E0452EB5
:1002800051E0552E60E0F20180810E94A5036CEFE1
:1002900078E080E090E00E94CE0262E371E087EABD
:1002A00091E00E94070660E0F30180810E94A503AF
:1002B00060E0F20180810E94A50364EF71E080E0BC
:1002C00090E00E94CE0262E0262E61E0362E61E0D0
:1002D000F10180810E94A50360E0E0E0F1E080810F
:1002E0000E94A50360EB74E080E090E00E94CE02E3
:1002F0006CE371E087EA91E00E94070660E0F1019B
:1003000080810E94A50360E0E0E0F1E080810E942E
:10031000A50364EF71E080E090E00E94CE0260E00F
:10032000F40180810E94A50361E0F50180810E94B3
:10033000A5036CED75E080E090E00E94CE0266E4DB
:1003400071E087EA91E00E94070660E0F401808195
:100350000E94A50360E0F50180810E94A50364EF7F
:1003600071E080E090E00E94CE0260E0F6018081C2
:100370000E94A50361E0F70180810E94A50368EE59
:1003800073E080E090E00E94CE0261E571E087EAD0
:1003900091E00E94070660E0F60180810E94A503BB
:1003A00060E0F70180810E94A50364EF71E080E0C6
:1003B00090E00E94CE0260E0F80180810E94A503D7
:1003C00061E088810E94A50360E476E080E090E02F
:1003D0000E94CE026CE571E087EA91E00E94070678
:1003E00060E0F80180810E94A50360E088810E949E
:1003F000A50364EF71E080E090E00E94CE0260E02F
:10040000F30180810E94A50361E0F20180810E94D6
:10041000A5036CEF78E080E090E00E94CE0267E6F2
:1004200071E087EA91E00E94070660E0F3018081B5
:100430000E94A50360E0F20180810E94A50364EFA1
:1004400071E080E090E00E94CE0260E0F1018081E6
:100450000E94A50361E0E0E0F1E080810E94A50335
:1004600060EB74E080E090E00E94CE0262E771E011
:1004700087EA91E00E94070660E0F10180810E9416
:10048000A50360E0E0E0F1E080810E94A50364EF55
:1004900071E080E090E0DF91CF911F910F91FF908C
:1004A000EF90DF90CF90BF90AF909F908F907F9014
:1004B0006F905F904F903F902F900C94CE020C94D1
:1004C0009F001F920F920FB60F9211242F933F930C
:1004D0008F939F93AF93BF9380919F019091A001C1
:1004E000A091A101B091A20130919E0123E0230FC0
:1004F0002D3720F40196A11DB11D05C026E8230F5C
:100500000296A11DB11D20939E0180939F0190939F
:10051000A001A093A101B093A2018091A3019091A9
:10052000A401A091A501B091A6010196A11DB11D44
:100530008093A3019093A401A093A501B093A60179
:10054000BF91AF919F918F913F912F910F900FBECF
:100550000F901F9018953FB7F8948091A301909148
:10056000A401A091A501B091A60126B5A89B05C044
:100570002F3F19F00196A11DB11D3FBF6627782FAF
:10058000892F9A2F620F711D811D911D42E0660F08
:10059000771F881F991F4A95D1F708958F929F92D0
:1005A000AF92BF92CF92DF92EF92FF926B017C01EC
:1005B0000E94AB024B015C01C114D104E104F104BF
:1005C000F1F00E9429060E94AB02681979098A0994
:1005D0009B09683E73408105910570F321E0C21AC2
:1005E000D108E108F10888EE880E83E0981EA11C6E
:1005F000B11CC114D104E104F10429F7DDCFFF904F
:10060000EF90DF90CF90BF90AF909F908F90089524
:10061000789484B5826084BD84B5816084BD85B5DD
:10062000826085BD85B5816085BDEEE6F0E08081A4
:1006300081608083E1E8F0E01082808182608083C5
:10064000808181608083E0E8F0E080818160808348
:10065000E1EBF0E0808184608083E0EBF0E080817A
:1006600081608083EAE7F0E080818460808380811C
:1006700082608083808181608083808180688083C4
:100680001092C1000895833081F028F4813099F0F0
:100690008230A1F008958730A9F08830B9F0843015
:1006A000D1F4809180008F7D03C0809180008F778E
:1006B00080938000089584B58F7702C084B58F7DC4
:1006C00084BD08958091B0008F7703C08091B00001
:1006D0008F7D8093B0000895CF93DF9390E0FC016D
:1006E000E458FF4F2491FC01E057FF4F8491882389
:1006F00049F190E0880F991FFC01E255FF4FA59149
:10070000B4918C559F4FFC01C591D4919FB7611155
:1007100008C0F8948C91209582238C938881822341
:100720000AC0623051F4F8948C91322F30958323B3
:100730008C938881822B888304C0F8948C91822BBF
:100740008C939FBFDF91CF9108950F931F93CF9309
:10075000DF931F92CDB7DEB7282F30E0F901E859BB
:10076000FF4F8491F901E458FF4F1491F901E057CC
:10077000FF4F04910023C9F0882321F069830E9470
:1007800043036981E02FF0E0EE0FFF1FEC55FF4FB0
:10079000A591B4919FB7F8948C91611103C0109505
:1007A000812301C0812B8C939FBF0F90DF91CF914C
:1007B0001F910F910895FC01818D228D90E0805C46
:1007C0009F4F821B91098F7399270895FC01918D8A
:1007D000828D981731F0828DE80FF11D858D90E0A4
:1007E00008958FEF9FEF0895FC01918D828D9817EA
:1007F00061F0828DDF01A80FB11D5D968C91928D05
:100800009F5F9F73928F90E008958FEF9FEF089501
:1008100088E795E0892B49F080E090E0892B29F06A
:100820000E94780581110C9400000895FC01848DCC
:10083000DF01A80FB11DA35ABF4F2C91848D90E00A
:1008400001968F739927848FA689B7892C93A089E5
:10085000B1898C9180648C93938D848D981306C09C
:100860000288F389E02D80818F7D80830895CF9366
:10087000DF93EC01888D8823C9F0EA89FB898081A8
:1008800085FD05C0A889B9898C9186FD0FC00FB67A
:1008900007FCF5CF808185FFF2CFA889B9898C91BB
:1008A00085FFEDCFCE010E941604E7CFDF91CF91F7
:1008B0000895CF92DF92FF920F931F93CF93DF9310
:1008C0001F92CDB7DEB76C0181E0D60158968C93AC
:1008D00058975B969C915B975C968C915C9798136C
:1008E00007C05096ED91FC915197808185FD2EC0F7
:1008F000F601038D10E00F5F1F4F0F731127F02ECD
:10090000F601848DF81211C00FB607FCF9CFD6019D
:100910005096ED91FC915197808185FFF1CFC601F2
:1009200069830E9416046981EBCF838DE80FF11D66
:10093000E35AFF4F6083D6015B960C935B97529608
:10094000ED91FC915397808180620CC0D601569640
:10095000ED91FC91579760835096ED91FC915197E2
:1009600080818064808381E090E00F90DF91CF915F
:100970001F910F91FF90DF90CF900895BF92CF927B
:10098000DF92EF92FF92CF93DF93EC016A017B013C
:10099000B22EE889F98982E08083411581EE5807FB
:1009A00061057105A1F060E079E08DE390E0A701B9
:1009B00096010E942A062150310941095109569594
:1009C000479537952795211580E1380798F0E889F4
:1009D000F989108260E874E88EE190E0A701960141
:1009E0000E942A062150310941095109569547951F
:1009F00037952795EC85FD853083EE85FF8520832F
:100A0000188EEC89FD89B082EA89FB89808180613A
:100A10008083EA89FB89808188608083EA89FB89F9
:100A2000808180688083EA89FB8980818F7D8083D3
:100A3000DF91CF91FF90EF90DF90CF90BF9008951E
:100A40001F920F920FB60F9211242F938F939F93A3
:100A5000EF93FF93E091B701F091B8018081E091AD
:100A6000BD01F091BE0182FD12C090818091C00154
:100A70008F5F8F732091C101821751F0E091C00107
:100A8000F0E0E955FE4F958F8093C00101C0808151
:100A9000FF91EF919F918F912F910F900FBE0F902B
:100AA0001F9018951F920F920FB60F9211242F933B
:100AB0003F934F935F936F937F938F939F93AF93E6
:100AC000BF93EF93FF9387EA91E00E941604FF9192
:100AD000EF91BF91AF919F918F917F916F915F91B6
:100AE0004F913F912F910F900FBE0F901F9018952F
:100AF00087EA91E00E94DB0321E0892B09F420E0E2
:100B0000822F08951092AA011092A90188EE93E015
:100B1000A0E0B0E08093AB019093AC01A093AD0155
:100B2000B093AE0181E891E09093A8018093A70172
:100B300085EC90E09093B4018093B30184EC90E055
:100B40009093B6018093B50180EC90E09093B8014A
:100B50008093B70181EC90E09093BA018093B90142
:100B600082EC90E09093BC018093BB0186EC90E016
:100B70009093BE018093BD011092C0011092C101FB
:100B80001092C2011092C3010895CF92DF92EF92AA
:100B9000FF920F931F93CF93DF937C016A01EB01C8
:100BA00000E010E00C151D0571F06991D701ED9181
:100BB000FC910190F081E02DC7010995892B19F076
:100BC0000F5F1F4FEFCFC801DF91CF911F910F91A2
:100BD000FF90EF90DF90CF9008956115710581F03F
:100BE000DB010D900020E9F7AD0141505109461B92
:100BF000570BDC01ED91FC910280F381E02D09940B
:100C000080E090E008956DE871E00C94ED050F939D
:100C10001F93CF93DF93EC010E94ED058C01CE0171
:100C20000E940306800F911FDF91CF911F910F91BA
:100C3000089508950E9408030E9419060E948700E3
:100C4000C8E0D4E00E945F022097E1F30E9408040C
:100C5000F9CF0895A1E21A2EAA1BBB1BFD010DC0FE
:100C6000AA1FBB1FEE1FFF1FA217B307E407F5075C
:100C700020F0A21BB30BE40BF50B661F771F881F38
:100C8000991F1A9469F760957095809590959B01CE
:100C9000AC01BD01CF010895EE0FFF1F0590F49147
:080CA000E02D0994F894FFCF48
:100CA8000B000A0009000800070006000500040000
:100CB800030002004465646F2031204F4E004465F4
:100CC800646F2032204F4E004465646F2033204FFC
:100CD8004E004465646F2034204F4E004465646FB5
:100CE8002035204F4E004465646F2031204F464622
:100CF800004465646F2032204F4646004465646FA7
:100D08002033204F4646004465646F2034204F4608
:100D180046004465646F2035204F464600000000B9
:100D2800005904C505DB03F403E60337040D0A0084
:0E0D38006E616E00696E66006F7666002E00BA
:00000001FF
